:100000000C9478000C948C000C948C000C948C0054
:100010000C948C000C948C000C948C000C948C0030
:100020000C948C000C948C000C948C000C948C0020
:100030000C948C000C948C000C948C000C948C0010
:100040000C948C000C948C000C948C000C948C0000
:100050000C948C000C948C000C948C000C948C00F0
:100060000C948C000C948C000C948C000C948C00E0
:100070000C948C000C948C000C948C000C948C00D0
:100080000C948C000C948C000C948C000C948C00C0
:100090000C948C000C948C000C948C000C948C00B0
:1000A0000C948C000C948C000C948C000C948C00A0
:1000B0000C948C000C948C000C948C000C948C0090
:1000C0000C948C000C948C000C948C000C948C0080
:1000D0000C948C000C948C000C948C000C948C0070
:1000E0000C948C000C9454010C946A010C948001C3
:1000F00011241FBECFEFD1E2DEBFCDBF00E00CBFA9
:1001000026E0A0E0B2E001C01D92AA31B207E1F7FB
:100110000E949D020C94AC020C9400000F921F925E
:100120002F923F924F925F926F927F928F929F9207
:10013000AF92BF92CF92DF92EF92FF920F931F93F5
:100140002F933F934F935F936F937F938F939F93DF
:10015000AF93BF93CF93DF93EF93FF93FCB7FF93DE
:10016000FFB7FF93E0911606F0911706CDB7DEB703
:10017000C193D193E0911806F0911906EDBFFEBF2F
:10018000FF91FFBFFF91FCBFFF91EF91DF91CF91F6
:10019000BF91AF919F918F917F916F915F914F919F
:1001A0003F912F911F910F91FF90EF90DF90CF9093
:1001B000BF90AF909F908F907F906F905F904F9087
:1001C0003F902F901F900F9008950E94B7010F92BB
:1001D0001F922F923F924F925F926F927F928F92D7
:1001E0009F92AF92BF92CF92DF92EF92FF920F93C6
:1001F0001F932F933F934F935F936F937F938F93AF
:100200009F93AF93BF93CF93DF93EF93FF93FCB78D
:10021000FF93FFB7FF93EDB7FEB7E0931806F09397
:100220001906E0911606F0911706C191D191CDBF44
:10023000DEBFFF91FFBFFF91FCBFFF91EF91DF9108
:10024000CF91BF91AF919F918F917F916F915F916E
:100250004F913F912F911F910F91FF90EF90DF9061
:10026000CF90BF90AF909F908F907F906F905F9056
:100270004F903F902F901F900F900895E1E0F1E094
:10028000808180638083109202010895E1E0F1E0B3
:100290008081806C80831092020108958093020116
:1002A00008951092020108953E9A469A2FEF87EA28
:1002B00091E6215080409040E1F700C00000469850
:1002C0002FEF87EA91E6215080409040E1F700C08F
:1002D0000000EBCF3F9A479A2FEF87EA91E6215033
:1002E00080409040E1F700C0000047982FEF87EA78
:1002F00091E6215080409040E1F700C00000EBCF34
:100300008091020290910302892B59F0F894E091B8
:100310001606F0911706EE5FFE4F118210820C94C4
:10032000E5000895FC01329620E031E0DF01A901EB
:100330001D9241505040E1F7E150FF4F20E831E07D
:1003400020833197308331971082319760833197C2
:100350007083319710829C0127523F4FDC012D930F
:100360003C93369681E090E091838083089524E069
:1003700031E08091040290910502829FF001839FF9
:10038000F00D929FF00D1124E85FFC4F8081918168
:10039000019761F0809104029091050201968370AB
:1003A00099279093050280930402E3CF40910402C1
:1003B0005091050224E031E0429FC001439F900D1F
:1003C000529F900D11248A5F9D4F90931706809342
:1003D0001606FC01EE5FFE4F82E090E09183808381
:1003E0008091040290910502019683709927909361
:1003F00005028093040208951092010210920002F7
:10040000109203021092020210920502109204024E
:10041000E6E0F2E084E091E0DF019C011D922150D2
:100420003040E1F7DF01AE5FBE4F1D921C92EC5FE2
:10043000FE4F36E0E631F30779F70895F8942091FE
:100440000002309101022430310531F1E8E0F3E09F
:1004500020E030E040815181452B39F02F5F3F4F44
:10046000EC5FFE4F24303105A9F7BC0180910002FA
:10047000909101020196909301028093000244E062
:1004800051E0249FC001259F900D349F900D1124B1
:100490008A5F9D4F0E949201789408958091020294
:1004A00090910302892B79F0F894E0911606F0916F
:1004B0001706EE5FFE4F81E090E0918380830E94FB
:1004C0008E000C94E50008951092A000E1EAF0E09F
:1004D000108280818860808380818460808381E74E
:1004E00092E09093A9008093A800E2E7F0E0808179
:1004F000826080831092A5001092A40008958091DC
:10050000020290910302892B99F48091000290914C
:100510000102892B69F0F89481E090E09093030246
:10052000809302020E9464020E94E5002F9A789450
:1005300008952F9A0E944E020895279A2F980E949C
:10054000FC018AE691E00E941E0284E591E00E948F
:0C0550001E020E947F02FFCFF894FFCF34
:00000001FF
